{
  "_format": "hh-sol-artifact-1",
  "contractName": "SecureDocumentStorage",
  "sourceName": "contracts/SecureDocumentStorage.sol",
  "abi": [
    {
      "anonymous": false,
      "inputs": [
        {
          "indexed": true,
          "internalType": "uint256",
          "name": "id",
          "type": "uint256"
        },
        {
          "indexed": true,
          "internalType": "address",
          "name": "owner",
          "type": "address"
        },
        {
          "indexed": true,
          "internalType": "address",
          "name": "user",
          "type": "address"
        },
        {
          "indexed": false,
          "internalType": "bool",
          "name": "access",
          "type": "bool"
        }
      ],
      "name": "AccessShared",
      "type": "event"
    },
    {
      "anonymous": false,
      "inputs": [
        {
          "indexed": true,
          "internalType": "uint256",
          "name": "id",
          "type": "uint256"
        },
        {
          "indexed": true,
          "internalType": "address",
          "name": "owner",
          "type": "address"
        },
        {
          "indexed": false,
          "internalType": "string",
          "name": "ipfsHash",
          "type": "string"
        }
      ],
      "name": "DocumentRegistered",
      "type": "event"
    },
    {
      "anonymous": false,
      "inputs": [
        {
          "indexed": true,
          "internalType": "uint256",
          "name": "id",
          "type": "uint256"
        },
        {
          "indexed": false,
          "internalType": "bool",
          "name": "valid",
          "type": "bool"
        }
      ],
      "name": "IntegrityVerified",
      "type": "event"
    },
    {
      "inputs": [
        {
          "internalType": "uint256",
          "name": "_id",
          "type": "uint256"
        }
      ],
      "name": "getDocumentInfo",
      "outputs": [
        {
          "internalType": "address",
          "name": "",
          "type": "address"
        },
        {
          "internalType": "string",
          "name": "",
          "type": "string"
        }
      ],
      "stateMutability": "view",
      "type": "function"
    },
    {
      "inputs": [
        {
          "internalType": "uint256",
          "name": "_id",
          "type": "uint256"
        },
        {
          "internalType": "address",
          "name": "_user",
          "type": "address"
        }
      ],
      "name": "hasAccess",
      "outputs": [
        {
          "internalType": "bool",
          "name": "",
          "type": "bool"
        }
      ],
      "stateMutability": "view",
      "type": "function"
    },
    {
      "inputs": [
        {
          "internalType": "bytes32",
          "name": "_hash",
          "type": "bytes32"
        },
        {
          "internalType": "string",
          "name": "_ipfsHash",
          "type": "string"
        }
      ],
      "name": "registerDocument",
      "outputs": [],
      "stateMutability": "nonpayable",
      "type": "function"
    },
    {
      "inputs": [
        {
          "internalType": "uint256",
          "name": "_id",
          "type": "uint256"
        },
        {
          "internalType": "address",
          "name": "_user",
          "type": "address"
        },
        {
          "internalType": "bool",
          "name": "_access",
          "type": "bool"
        }
      ],
      "name": "shareAccess",
      "outputs": [],
      "stateMutability": "nonpayable",
      "type": "function"
    },
    {
      "inputs": [
        {
          "internalType": "uint256",
          "name": "_id",
          "type": "uint256"
        },
        {
          "internalType": "bytes32",
          "name": "_hash",
          "type": "bytes32"
        }
      ],
      "name": "verifyIntegrity",
      "outputs": [
        {
          "internalType": "bool",
          "name": "",
          "type": "bool"
        }
      ],
      "stateMutability": "nonpayable",
      "type": "function"
    }
  ],
  "bytecode": "0x6080604052348015600f57600080fd5b50610f038061001f6000396000f3fe608060405234801561001057600080fd5b50600436106100575760003560e01c80636c4978911461005c578063b97229651461008d578063ced14198146100bd578063ea5bb653146100ed578063fa17185a14610109575b600080fd5b61007660048036038101906100719190610628565b610125565b604051610084929190610726565b60405180910390f35b6100a760048036038101906100a2919061078c565b610248565b6040516100b491906107e7565b60405180910390f35b6100d760048036038101906100d2919061082e565b6102a8565b6040516100e491906107e7565b60405180910390f35b6101076004803603810190610102919061089a565b610372565b005b610123600480360381019061011e9190610a22565b6104ee565b005b60006060600060016000858152602001908152602001600020905061014a84336102a8565b610189576040517f08c379a000000000000000000000000000000000000000000000000000000000815260040161018090610aca565b60405180910390fd5b8060020160009054906101000a900473ffffffffffffffffffffffffffffffffffffffff16816003018080546101be90610b19565b80601f01602080910402602001604051908101604052809291908181526020018280546101ea90610b19565b80156102375780601f1061020c57610100808354040283529160200191610237565b820191906000526020600020905b81548152906001019060200180831161021a57829003601f168201915b505050505090509250925050915091565b600080826001600086815260200190815260200160002060010154149050837faad84c0412f9aeee927b431e8007d4b547afccd924e69e97285558f322e440428260405161029691906107e7565b60405180910390a28091505092915050565b6000806001600085815260200190815260200160002090508273ffffffffffffffffffffffffffffffffffffffff168160020160009054906101000a900473ffffffffffffffffffffffffffffffffffffffff1673ffffffffffffffffffffffffffffffffffffffff16148061036957508060040160008473ffffffffffffffffffffffffffffffffffffffff1673ffffffffffffffffffffffffffffffffffffffff16815260200190815260200160002060009054906101000a900460ff165b91505092915050565b826001600082815260200190815260200160002060020160009054906101000a900473ffffffffffffffffffffffffffffffffffffffff1673ffffffffffffffffffffffffffffffffffffffff163373ffffffffffffffffffffffffffffffffffffffff1614610417576040517f08c379a000000000000000000000000000000000000000000000000000000000815260040161040e90610b96565b60405180910390fd5b816001600086815260200190815260200160002060040160008573ffffffffffffffffffffffffffffffffffffffff1673ffffffffffffffffffffffffffffffffffffffff16815260200190815260200160002060006101000a81548160ff0219169083151502179055508273ffffffffffffffffffffffffffffffffffffffff163373ffffffffffffffffffffffffffffffffffffffff16857f9970f24a00f54bb1bcfb5bc4c39a6d267e32d250aaf8546d8421d47c8b45ff59856040516104e091906107e7565b60405180910390a450505050565b60008081548092919061050090610be5565b91905055506000600160008054815260200190815260200160002090506000548160000181905550828160010181905550338160020160006101000a81548173ffffffffffffffffffffffffffffffffffffffff021916908373ffffffffffffffffffffffffffffffffffffffff160217905550818160030190816105859190610dd9565b503373ffffffffffffffffffffffffffffffffffffffff1681600001547f1d2b9633d2192d7b9e9a9a6e9e300883f5db72f460179d8c148af1c05936ddbe846040516105d19190610eab565b60405180910390a3505050565b6000604051905090565b600080fd5b600080fd5b6000819050919050565b610605816105f2565b811461061057600080fd5b50565b600081359050610622816105fc565b92915050565b60006020828403121561063e5761063d6105e8565b5b600061064c84828501610613565b91505092915050565b600073ffffffffffffffffffffffffffffffffffffffff82169050919050565b600061068082610655565b9050919050565b61069081610675565b82525050565b600081519050919050565b600082825260208201905092915050565b60005b838110156106d05780820151818401526020810190506106b5565b60008484015250505050565b6000601f19601f8301169050919050565b60006106f882610696565b61070281856106a1565b93506107128185602086016106b2565b61071b816106dc565b840191505092915050565b600060408201905061073b6000830185610687565b818103602083015261074d81846106ed565b90509392505050565b6000819050919050565b61076981610756565b811461077457600080fd5b50565b60008135905061078681610760565b92915050565b600080604083850312156107a3576107a26105e8565b5b60006107b185828601610613565b92505060206107c285828601610777565b9150509250929050565b60008115159050919050565b6107e1816107cc565b82525050565b60006020820190506107fc60008301846107d8565b92915050565b61080b81610675565b811461081657600080fd5b50565b60008135905061082881610802565b92915050565b60008060408385031215610845576108446105e8565b5b600061085385828601610613565b925050602061086485828601610819565b9150509250929050565b610877816107cc565b811461088257600080fd5b50565b6000813590506108948161086e565b92915050565b6000806000606084860312156108b3576108b26105e8565b5b60006108c186828701610613565b93505060206108d286828701610819565b92505060406108e386828701610885565b9150509250925092565b600080fd5b600080fd5b7f4e487b7100000000000000000000000000000000000000000000000000000000600052604160045260246000fd5b61092f826106dc565b810181811067ffffffffffffffff8211171561094e5761094d6108f7565b5b80604052505050565b60006109616105de565b905061096d8282610926565b919050565b600067ffffffffffffffff82111561098d5761098c6108f7565b5b610996826106dc565b9050602081019050919050565b82818337600083830152505050565b60006109c56109c084610972565b610957565b9050828152602081018484840111156109e1576109e06108f2565b5b6109ec8482856109a3565b509392505050565b600082601f830112610a0957610a086108ed565b5b8135610a198482602086016109b2565b91505092915050565b60008060408385031215610a3957610a386105e8565b5b6000610a4785828601610777565b925050602083013567ffffffffffffffff811115610a6857610a676105ed565b5b610a74858286016109f4565b9150509250929050565b7f4163636573732064656e69656400000000000000000000000000000000000000600082015250565b6000610ab4600d836106a1565b9150610abf82610a7e565b602082019050919050565b60006020820190508181036000830152610ae381610aa7565b9050919050565b7f4e487b7100000000000000000000000000000000000000000000000000000000600052602260045260246000fd5b60006002820490506001821680610b3157607f821691505b602082108103610b4457610b43610aea565b5b50919050565b7f4e6f742074686520646f63756d656e74206f776e657200000000000000000000600082015250565b6000610b806016836106a1565b9150610b8b82610b4a565b602082019050919050565b60006020820190508181036000830152610baf81610b73565b9050919050565b7f4e487b7100000000000000000000000000000000000000000000000000000000600052601160045260246000fd5b6000610bf0826105f2565b91507fffffffffffffffffffffffffffffffffffffffffffffffffffffffffffffffff8203610c2257610c21610bb6565b5b600182019050919050565b60008190508160005260206000209050919050565b60006020601f8301049050919050565b600082821b905092915050565b600060088302610c8f7fffffffffffffffffffffffffffffffffffffffffffffffffffffffffffffffff82610c52565b610c998683610c52565b95508019841693508086168417925050509392505050565b6000819050919050565b6000610cd6610cd1610ccc846105f2565b610cb1565b6105f2565b9050919050565b6000819050919050565b610cf083610cbb565b610d04610cfc82610cdd565b848454610c5f565b825550505050565b600090565b610d19610d0c565b610d24818484610ce7565b505050565b5b81811015610d4857610d3d600082610d11565b600181019050610d2a565b5050565b601f821115610d8d57610d5e81610c2d565b610d6784610c42565b81016020851015610d76578190505b610d8a610d8285610c42565b830182610d29565b50505b505050565b600082821c905092915050565b6000610db060001984600802610d92565b1980831691505092915050565b6000610dc98383610d9f565b9150826002028217905092915050565b610de282610696565b67ffffffffffffffff811115610dfb57610dfa6108f7565b5b610e058254610b19565b610e10828285610d4c565b600060209050601f831160018114610e435760008415610e31578287015190505b610e3b8582610dbd565b865550610ea3565b601f198416610e5186610c2d565b60005b82811015610e7957848901518255600182019150602085019450602081019050610e54565b86831015610e965784890151610e92601f891682610d9f565b8355505b6001600288020188555050505b505050505050565b60006020820190508181036000830152610ec581846106ed565b90509291505056fea2646970667358221220e06b5a1d003eeb0de265ba524eb74db0960b9eb46bd33385b171535abbab0fec64736f6c634300081c0033",
  "linkReferences": {},
  "deployedLinkReferences": {}
}